{
  "contractName": "Compliments",
  "abi": [
    {
      "constant": true,
      "inputs": [],
      "name": "totalSupply",
      "outputs": [
        {
          "name": "",
          "type": "uint256"
        }
      ],
      "payable": false,
      "stateMutability": "view",
      "type": "function"
    },
    {
      "inputs": [],
      "payable": false,
      "stateMutability": "nonpayable",
      "type": "constructor"
    }
  ],
  "bytecode": "0x608060405234801561001057600080fd5b50630337f980600081905550609e8061002a6000396000f300608060405260043610603f576000357c0100000000000000000000000000000000000000000000000000000000900463ffffffff16806318160ddd146044575b600080fd5b348015604f57600080fd5b506056606c565b6040518082815260200191505060405180910390f35b600054815600a165627a7a72305820f122218f35ba9a5f92f3e23902243cb6302f4af4a244d112f6be74f1ae17b7080029",
  "source": "pragma solidity ^0.4.2;\n\ncontract Compliments {\n  // Constructor\n  // Set the total number of Tokens\n  // Read the total number of tokens\n  uint256 public totalSupply;\n  \n  function Compliments () public {\n    totalSupply = 54000000; // 54 million\n\n\n  }\n}\n",
  "sourcePath": "/home/siwa/Projects/Compliments/contracts/ComplimentsToken.sol",
  "compiler": {
    "name": "solc",
    "version": "0.4.24+commit.e67f0147.Emscripten.clang"
  },
  "schemaVersion": "2.0.1",
  "updatedAt": "2018-08-14T18:04:43.608Z"
}